:100000000C9442010C9487110C9460110C946A01B9
:100010000C946A010C946A010C942F150C94D9115C
:100020000C946A010C946A010C946A010C946A01A4
:100030000C946A010C946A010C946A010C946A0194
:100040000C94421B0C946A010C945B120C943512B4
:100050000C946A010C946A010C946A010C946A0174
:100060000C9401140C946A015924901C901C6D246A
:10007000901C5724901C901C901C861C901C901C5B
:1000800060246B246924901C901C901C6724776961
:100090007A6172645F0052554E530077697A6172DB
:1000A000645F005354415348005354415348005037
:1000B0003200503100454E440047414D45005354F5
:1000C0004152540047414D45007274635F00323025
:1000D0003A34333A3236004F6374203330203230B2
:1000E0003138004C6F737420506F77657200574140
:1000F000524E494E4700342C73686F77696E6763C0
:100100006C6F636B004D4F44554C4500332C6D654F
:100110006E75004D4F44554C4500322C706C617922
:1001200067616D65004D4F44554C4500312C626F41
:100130006F74696E67004D4F44554C4500706F7782
:1001400065725F0042415400736C6565705F0053D7
:100150004C4545500053004157414B4500530077F3
:10016000697A6172645F004D454D0040006862002D
:100170006C6F675F007E306D79335B5F707F7B777C
:100180001F0D3D4F47000000000000000000000070
:10019000000000000000000000000000000000005F
:1001A00000800180007E306D79335B5F707F7B0063
:1001B000000000000000771F0D3D4F470037000092
:1001C000000E0000006700000000000000000000BA
:1001D000000000000800771F0D3D4F47003700006A
:1001E000000E00151D670000000000000000000068
:1001F000000000000066736D5F004D5353002569D9
:100200002C25692C25690000000000250028002B02
:100210000000000000230026002900000000080064
:1002200002010000030407000000000000000000BD
:10023000000000240027002A0001020408102040CA
:1002400080010204081020010204081020040404A4
:10025000040404040402020202020203030303036F
:10026000031F1C1F1E1F1E1F1F1E1F1E1F022553A4
:100270007C2553007C007C0066736D5F0066736DA7
:100280005F00D82411241FBECFEFD8E0DEBFCDBF62
:1002900011E0A0E0B1E0EAEFFBE502C005900D92AD
:1002A000AA3AB107D9F726E0AAEAB1E001C01D9247
:1002B000A930B207E1F711E0C2E4D1E004C0219710
:1002C000FE010E94D92DC134D107C9F70E948C1BB1
:1002D0000C94FB2D0C9400004F925F926F927F92D2
:1002E0008F929F92AF92BF92CF92DF92EF92FF9246
:1002F0000F931F93CF93DF93CDB7DEB7C854D109C7
:100300000FB6F894DEBF0FBECDBF809120028130C2
:1003100009F099C10E94061780912102813009F0ED
:100320004AC080912202813009F04CC00E949F1681
:100330000E9434160E94CD158091AA0181110C945F
:100340002A0B80E090E00E941D2D182F81E090E0A4
:100350000E941D2D8F3F61F41F3F11F01F5F01C0F0
:1003600010E0612F80E090E00E94252D00E002C0A7
:1003700001E0080F602F81E090E00E94252D66E9E2
:1003800070E08EE890E00E9400180E94DB17612F59
:1003900070E0762F6627600F711D80E090E04AE0E4
:1003A0000E94B00B8CE891E00E949E0B81E080934C
:1003B000AA010C942A0B823009F000C1809122021C
:1003C0008130D1F081E0C85BDF4F0FB6F894DEBF1B
:1003D0000FBECDBFDF91CF911F910F91FF90EF9096
:1003E000DF90CF90BF90AF909F908F907F906F9055
:1003F0005F904F900C941A1B9091AB01911194C097
:1004000048EE5BEE64EC71E440932C0550932D05AF
:1004100060932E0570932F0521E030E03093310575
:100420002093300597E09093320580933305109226
:1004300034051092350510923705109236058CE080
:10044000E4E2F1E0A8E3B5E001900D928A95E1F7CE
:100450008CE0E0E3F1E0A4E4B5E001900D928A9530
:10046000E1F78CE0ECE3F1E0A0E5B5E001900D925E
:100470008A95E1F78CE0E8E4F1E0ACE5B5E00190C5
:100480000D928A95E1F78CE0E4E5F1E0A8E6B5E0AD
:1004900001900D928A95E1F7CE0101967C0102E070
:1004A00010E06C01C8010E941D2DF70181937F01AE
:1004B0000F5F1F4F0A341105A9F789819A81AB811B
:1004C000BC81883E9B4EA44CB144C9F469EA70E0FB
:1004D0008BE990E00E9400180E94DB178FE891E002
:1004E0000E949E0B8CE891E00E949E0B88E4F6012E
:1004F000ACE2B5E001900D928A95E1F712C063EA93
:1005000070E08BE990E00E9400180E94DB1787E9F9
:1005100091E00E949E0B8CE891E00E949E0B0E944D
:10052000D81A81E08093AB018091AC0181112CC07D
:1005300080913205809300010E944D178091330510
:10054000813019F48093BC0102C01092BC018091EB
:100550003405813019F48093B50102C01092B501C1
:100560000E947E1580913505813019F48093BB017E
:1005700002C01092BB0180913605909137050E9410
:10058000401881E08093AC0183E0C85BDF4F0FB679
:10059000F894DEBF0FBECDBFDF91CF911F910F91B9
:1005A000FF90EF90DF90CF90BF90AF909F908F9093
:1005B0007F906F905F904F900C94281B833009F0D0
:1005C00053C080912202813029F40E94681760E9AB
:1005D00071E0BEC1823031F50E941D178091C101CA
:1005E00081110C945D0B64E670E088E592E00E9456
:1005F000A118C85BDF4F0FB6F894DEBF0FBECDBFAA
:10060000DF91CF911F910F91FF90EF90DF90CF90EE
:10061000BF90AF909F908F907F906F905F904F9022
:100620000C94231B833009F0CDCE0E941D178091BE
:10063000C10181110C945D0B0E940C171092B60140
:1006400084E00C94440B823009F0A4C20E94061787
:1006500080912102813051F08230D1F0833009F451
:10066000D0C1843009F45EC281E08FCF8091220234
:10067000813029F464EF71E088EB91E0B8CF8230EB
:1006800009F0A0CE8091CD0181110C945D0B68C75B
:1006900080912202813009F033C18091EB058823DB
:1006A00029F1C090D605D090D705E090D805F090FC
:1006B000D9050E94C0160091E3051091E405209130
:1006C000E5053091E6050C0D1D1D2E1D3F1D680131
:1006D0007901C61AD70AE80AF90AC092E705D0924A
:1006E000E805E092E905F092EA0528C08091E2056C
:1006F000882321F1C090D205D090D305E090D40595
:10070000F090D5050E94C0160091DA051091DB0526
:100710002091DC053091DD050C0D1D1D2E1D3F1DAA
:1007200068017901C61AD70AE80AF90AC092DE05FB
:10073000D092DF05E092E005F092E1050E94931867
:10074000C090E705D090E805E090E905F090EA0553
:100750001C141D041E041F0444F021E040E060E06E
:1007600070E0CB010E9489174AC0C701B60120E69C
:100770003AEE40E050E00E94332D49015A01C70192
:10078000B60128EE33E040E050E00E94332DCA016C
:10079000B9012CE330E040E050E00E94332D2B0102
:1007A0003C011814190484F4B401990C880B990BBA
:1007B00021E042E00E94891722E040E0C301B2013B
:1007C0000E94891782E019C021E041E00E94891748
:1007D000C701B60124E630E040E050E00E94332D2E
:1007E000CA01B9012AE030E040E050E00E94332D18
:1007F00021E040E00E94891781E00E940D0D4090A9
:10080000DE055090DF056090E0057090E10514145E
:1008100015041604170444F021E047E060E070E09E
:10082000CB010E948917E5CEC301B20120E63AEE62
:1008300040E050E00E94332D69017A018901C30133
:10084000B20128EE33E040E050E00E94332DCA01AF
:10085000B9012CE330E040E050E00E94332D4B0121
:100860005C011C141D04C4F4B601DD0C880B990B4B
:1008700021E00A30110544F447E00E94891722E084
:1008800045E0C501B4012BC046E00E94891722E073
:1008900044E0C501B4012EC0C301B20124E630E03A
:1008A00040E050E00E94332DCA01B9012AE030E057
:1008B00040E050E00E94332D6B017C01B401092C13
:1008C000000C880B990B2AE0821691045CF421E05D
:1008D00047E00E94891721E046E0C701B6010E9467
:1008E000891724C622E046E00E94891721E045E0EE
:1008F000C701B6010E94891786E00E940D0D79CECE
:10090000823009F058C08091EB05882371F0809106
:10091000CC01882301F11092CC010E94C4261092D0
:10092000EB0581E08093E20511C08091E205882308
:10093000B9F18091E8018823B9F01092E8010E9492
:10094000C42681E08093EB051092E20564E670E036
:100950008CE291E04CCE8091E7059091E805A09162
:10096000E905B091EA0508C08091DE059091DF05A8
:10097000A091E005B091E105181619061A061B06AC
:100980007CF084E002CE823009F01CCD81E090E062
:100990000E947918811122C20E944C1581112BC22C
:1009A00083E090E00E9479188111EECD0E944615F7
:1009B000882371F063C5833009F004CD1092CC0117
:1009C0001092E80162E370E08CED90E00E94A118C3
:1009D000C85BDF4F0FB6F894DEBF0FBECDBFDF910F
:1009E000CF911F910F91FF90EF90DF90CF90BF902C
:1009F000AF909F908F907F906F905F904F900C94EE
:100A0000201B80912202813009F061C08091EB05AA
:100A1000882381F08091E7059091E805A091E90590
:100A2000B091EA058093E3059093E405A093E50572
:100A3000B093E6058091E205882381F08091DE0580
:100A40009091DF05A091E005B091E1058093DA0572
:100A50009093DB05A093DC05B093DD050E94C016E2
:100A60006093D6057093D7058093D8059093D905E8
:100A70000E94C0166093D2057093D3058093D4056D
:100A80009093D50564E670E088EC90E00E94A11890
:100A900060E472E48FE090E00E94BF0D0E940C17AA
:100AA00061E087E60E945E1762E087E70E945E17BA
:100AB00063E08CE10E945E1764E08BE50E945E17A4
:100AC00065E08FE40E945E1766E08DE384C18230AA
:100AD00009F078CC83E090E00E947918882309F42B
:100AE00089C00E94C0166093D6057093D705809385
:100AF000D8059093D9050E94C0166093D2057093D3
:100B0000D3058093D4059093D50564E670E088EC16
:100B100090E00E94A1180E949F160E9434160E9425
:100B2000CD1598C580912202813019F565EB70E0F2
:100B300089EB90E00E9433184091E7055091E80559
:100B40006091E9057091EA0582EB90E00E941A1825
:100B50004091DE055091DF056091E0057091E1055F
:100B60008FEA90E00E941A186CED75E080E793E040
:100B70003ECD823049F48091C10181119EC560E46F
:100B80007BE48CE490E024C4833009F01BCC0E9409
:100B9000DE0D32C0833009F073C40E9406178091C5
:100BA0002102813009F0F1C080912202813041F5AB
:100BB0000E94931860E087E60E945E1761E085E07E
:100BC0000E945E1762E08DE10E945E1763E08BE792
:100BD0000E945E1781E090E00E94791881113AC569
:100BE0000E944C15811136C583E090E00E9479186F
:100BF0008111FFCC0E944615882309F45EC53EC4CE
:100C00008230D1F40E94931860E08DE30E945E1759
:100C100061E087E70E945E1762E08FE00E945E1746
:100C200063E08FE60E945E1781E090E00E947918F1
:100C30008823D1F289E0A9CC8330F9F40E9493187B
:100C400060E08EE00E945E1761E080E10E945E1726
:100C500062E08BE70E945E1763E087E10E945E1707
:100C600064E08FE00E945E1781E090E00E947918B6
:100C7000882309F4B9CF8DE088CC8430D9F40E9460
:100C8000931860E085E10E945E1761E08DE10E94AB
:100C90005E1762E08DE30E945E1763E08FE60E94BC
:100CA0005E1781E090E00E947918882309F49CCFB8
:100CB0008FE06BCC8530F9F40E94931860E08BE5EF
:100CC0000E945E1761E08DE10E945E1762E08CE198
:100CD0000E945E1763E085E10E945E1764E08DE389
:100CE0000E945E1781E090E00E947918882309F441
:100CF0007BCF81E14ACC8630F9F40E94931860E002
:100D00008BE50E945E1761E08EE00E945E1762E054
:100D10008FE40E945E1763E08FE40E945E1764E038
:100D200087E60E945E1781E090E00E947918882390
:100D300009F45ACF83E129CC873009F043CB0E94D4
:100D4000931860E08BE50E945E1761E08FE00E94DF
:100D50005E1762E087E70E945E1763E08BE50E9402
:100D60005E1764E087E10E945E1781E090E00E94D8
:100D70007918882311F085E108CC83E090E00E9487
:100D80007918882309F436CF23CE823009F05DC06C
:100D900080912202813009F0F6CD0E949318609173
:100DA0003605709137056F5F7F4F072E000C880B5B
:100DB000990B21E043E00E94891760E087E60E94DA
:100DC0005E1761E085E00E945E1762E08DE10E949F
:100DD0005E1763E08BE70E945E170BCC80913605AF
:100DE0009091370501968530910571F41092370581
:100DF000109236050DC08091360590913705019708
:100E000097FF02C084E090E0909337058093360509
:100E10008091360590913705C85BDF4F0FB6F89487
:100E2000DEBF0FBECDBFDF91CF911F910F91FF901D
:100E3000EF90DF90CF90BF90AF909F908F907F907A
:100E40006F905F904F900C9440188330C1F5809163
:100E50002202813049F40E94DE0D882309F42DC45A
:100E60000E94681741E06DC0823069F40E94DE0D77
:100E7000882309F422C40E94681741E061E080E001
:100E80000E949127A1C2833009F09CCA81E090E0C2
:100E90000E947918882321F081E090E00E94521589
:100EA0000E944C15882321F08FEF9FEF0E9452156E
:100EB00083E090E00E947918811163CD89CD843060
:100EC00079F580912202813031F2823059F40E940A
:100ED000DE0D882309F4F1C30E94681741E060E049
:100EE00081E0CECF833009F06DCA81E090E00E94AE
:100EF0007918882321F081E090E00E949D260E94CD
:100F00004C15882321F08FEF9FEF0E949D2683E0F0
:100F100090E00E947918882309F45ACD85E035CBFA
:100F2000853079F580912202813009F494CF8230A6
:100F300051F40E94DE0D882309F4BFC30E94681794
:100F400040E061E0CDCF833009F03CCA81E090E021
:100F50000E947918882321F081E090E00E94762693
:100F60000E944C15882321F08FEF9FEF0E94762678
:100F700083E090E00E947918882309F429CD86E067
:100F800004CB8630C1F580912202813049F40E9461
:100F9000DE0D882309F491C30E94681741E06CC0FC
:100FA000823059F40E94DE0D882309F486C30E9422
:100FB000681741E061E080E061C0833009F002CA57
:100FC00081E090E00E947918882321F081E090E090
:100FD0000E944F260E944C15882321F08FEF9FEF2F
:100FE0000E944F2683E090E00E947918882309F43C
:100FF000EFCC87E0CACA873071F580912202813038
:1010000031F2823051F40E94DE0D882309F455C379
:101010000E94681741E060E030C0833009F0D2C917
:1010200081E090E00E947918882321F081E090E02F
:101030000E9428260E944C15882321F08FEF9FEFF5
:101040000E94282683E090E00E947918882309F402
:10105000BFCC88E09ACA883059F58091220281304D
:1010600009F495CF823069F40E94DE0D882309F4DB
:1010700024C30E94681740E061E081E00E945B2782
:10108000A3C1833009F09EC981E090E00E947918E5
:10109000882321F081E090E00E9401260E944C15F7
:1010A000882309F4DBC18FEF9FEF0E940126D6C190
:1010B000893039F480912202813009F083C98AE0B5
:1010C00064CA8A30C1F580912202813049F40E94BD
:1010D000DE0D882309F4F1C20E94681741E06CC05C
:1010E000823059F40E94DE0D882309F4E6C20E9482
:1010F000681741E061E080E061C0833009F062C9B7
:1011000081E090E00E947918882321F080E19EE040
:101110000E94C7270E944C15882321F080EF91EF91
:101120000E94C72783E090E00E947918882309F481
:101130004FCC8BE02ACA8B3071F58091220281302E
:1011400031F2823051F40E94DE0D882309F4B5C2D9
:101150000E94681741E060E030C0833009F032C976
:1011600081E090E00E947918882321F08CE390E0E0
:101170000E94C7270E944C15882321F084EC9FEF22
:101180000E94C72783E090E00E947918882309F421
:101190001FCC8CE0FAC98C3059F580912202813045
:1011A00009F495CF823069F40E94DE0D882309F49A
:1011B00084C20E94681740E061E081E00E9431270C
:1011C00003C1833009F0FEC881E090E00E947918E5
:1011D000882321F081E090E00E94C7270E944C15EF
:1011E000882309F43BC18FEF9FEF0E94C72736C1C8
:1011F0008D3039F480912202813009F0E3C88EE00D
:10120000C4C98E3009F045C080912202813089F432
:101210000E94DE0D882309F450C20E946817609175
:10122000000170E080E090E022E040E00E94891739
:10123000CBC0823041F40E94DE0D882309F43DC208
:101240000E946817C1C0833009F0BCC881E090E0FB
:101250000E947918882361F0809100018F3019F481
:101260001092000103C08F5F809300010E944D1710
:101270000E944C15882309F4F1C08091000181116E
:1012800002C08FE001C08150809300010E944D1781
:10129000E5C08F3039F480912202813009F092C884
:1012A00080E173C98031D9F480912202813009F044
:1012B00041C00E94DE0D882309F4FFC10E94681717
:1012C0008091B501882339F165E080E00E945E17C6
:1012D00066E08DE10E945E1767E085E126C08131FE
:1012E00009F446C0823109F44AC0833109F491C03F
:1012F000843109F0B8C080912202813009F091C098
:101300000E94DE0D882309F4D8C10E9468178091DD
:10131000BB018823C9F265E08DE10E945E1766E09B
:1013200087E40E945E1767E087E40E945E170E94D0
:101330007E154AC0823009F47ECF833009F042C85E
:1013400081E090E00E947918882331F09091B501F6
:1013500081E089278093B5010E944C15882309F408
:101360007DC09091B50181E089278093B50176C059
:1013700080912202813009F025C882E106C980915E
:101380002202813041F50E94DE0D882309F495C1C7
:101390000E9468178091BC0165E0882351F080E0CD
:1013A0000E945E1766E08DE10E945E1767E085E1AE
:1013B00009C08DE10E945E1766E087E40E945E1717
:1013C00067E087E40E945E1760EA76E881E090E0DB
:1013D0000E94BF0D0EC9823009F42DCF833011F069
:1013E0000C94E20181E090E00E947918882331F0AA
:1013F0009091BC0181E089278093BC010E944C152B
:10140000882361F19091BC0181E089278093BC0120
:1014100025C080912202813011F00C94E20184E118
:10142000B4C8823009F407CF833011F00C94E20184
:1014300081E090E00E947918882331F09091BB01FF
:1014400081E089278093BB010E944C15882331F0ED
:101450009091BB0181E089278093BB0183E090E0FC
:101460000E947918A5CA853109F0FEC88091220230
:10147000813011F00C94E2010E94D81A81E004C17D
:101480008430E1F70E94061780912102813009F033
:10149000EBC880912202813009F04AC08093B701E5
:1014A0000E94681760917404062F10E06091750423
:1014B0000D3011051CF00C50110905C00115110566
:1014C00011F40CE010E070E080E090E022E042E0F7
:1014D0000E948917B801110F880B990B20E044E096
:1014E0000E94891784E00E940D0D0E94C01628EE0C
:1014F00033E040E050E00E949C2D20FD02C081E0DE
:1015000001C086E00E940D0D6091D7047091D8044F
:101510008091D9049091DA0428EE33E040E050E065
:101520000E949C2D20FD02C080E0E7C987E0E5C94C
:10153000823011F00C94E20183E090E00E9479186F
:10154000882311F083E0A0C08091CD01811185C076
:101550008091B801882309F486C01092B8017DC03B
:101560008091E9018111A9C00E949F160E94341642
:101570000E94CD150E94C0166093D6057093D705C2
:101580008093D8059093D905A091F205B091F30509
:101590002CE330E00E94DF2D2091F0053091F10521
:1015A0008901330F220B330BA9019801260F371F36
:1015B000481F591FA8EEB3E00E94522D6B017C0119
:1015C0006093E3057093E4058093E5059093E60549
:1015D0000E94C0166093D2057093D3058093D40502
:1015E0009093D505A091EE05B091EF052CE330E086
:1015F0000E94DF2D2091EC053091ED058901330F1C
:10160000220B330BA9019801260F371F481F591FC2
:10161000A8EEB3E00E94522D6093DA057093DB05CB
:101620008093DC059093DD05C092E705D092E80534
:10163000E092E905F092EA056093DE057093DF051C
:101640008093E0059093E1056EEB70E084EC90E010
:101650000E94331882E00C94C5021092EB0581E0E1
:101660008093E20510C08091E901811107C080914B
:10167000B901882309F4ACC91092B90181E08093C3
:10168000EB051092E20582E0C85BDF4F0FB6F894DD
:10169000DEBF0FBECDBFDF91CF911F910F91FF90A5
:1016A000EF90DF90CF90BF90AF909F908F907F9002
:1016B0006F905F904F900C94341BC85BDF4F0FB658
:1016C000F894DEBF0FBECDBFDF91CF911F910F9178
:1016D000FF90EF90DF90CF90BF90AF909F908F9052
:1016E0007F906F905F904F900895833081F028F441
:1016F000813099F08230A1F008958730A9F08830C8
:10170000B9F08430D1F4809180008F7D03C0809146
:1017100080008F7780938000089584B58F7702C012
:1017200084B58F7D84BD08958091B0008F7703C00C
:101730008091B0008F7D8093B0000895009769F08C
:10174000FC0101900020E9F73197AF01481B590BCC
:10175000BC0184EC93E00C94920F80E090E008953B
:101760008F929F92AF92BF920F931F93CF93DF936D
:10177000CDB7DEB7A1970FB6F894DEBF0FBECDBFD1
:1017800019A2423008F44AE08E010F5D1F4F842EEB
:10179000912CA12CB12CA50194010E949C2DE62F27
:1017A000B901CA0101501109EA3014F4E05D01C029
:1017B000E95CD801EC93232B242B252B61F7C8017E
:1017C0000E949E0BA1960FB6F894DEBF0FBECDBF50
:1017D000DF91CF911F910F91BF90AF909F908F900D
:1017E0000895CF92DF92EF92FF92CF93DF9397FF0E
:1017F0001BC06B017C016DE284EC93E00E9425101C
:10180000EC0166277727CB016C197D098E099F09AA
:101810004AE00E94B00B8C0F9D1FDF91CF91FF908B
:10182000EF90DF90CF9008954AE0DF91CF91FF9045
:10183000EF90DF90CF900C94B00B9091C303911177
:10184000FCCF91E09093C3039093C2032FEF2093BA
:10185000C1031092C003260F2093BF039093BE03D1
:101860009091BE03880F892B8093BE038091BD03A6
:10187000813061F41092BD038091BE038093BB0060
:101880008091BC0083FDF8CF85EC01C085EE80938C
:10189000BC008091C3038130E1F38091C0038617BF
:1018A00010F46091C003ADE9B3E0EDE7F3E080E050
:1018B000861721F09D9191938F5FFACF0895309113
:1018C0007C03313208F04BC08091C3038111FCCFFF
:1018D00090917B0322E02093C30321E02093C20375
:1018E0002FEF2093C1031092C0033093BF03EBE5A9
:1018F000F3E0ADE9B3E020E0321721F041914D93E0
:101900002F5FFACF1092BE032091BE03990F922B46
:101910009093BE039091BD03913061F41092BD038A
:101920009091BE039093BB009091BC0093FDF8CFC3
:1019300095EC01C095EE9093BC009091C30392305A
:10194000E1F39091C1039F3F79F08091C103803210
:1019500041F08091C103803331F084E005C081E023
:1019600003C082E001C083E010925A0310927C030E
:10197000109259030895CF93C62F91E09093590385
:1019800098E690937B0310925A0310927C03682F81
:1019900081E694E00E942B116C2F81E694E00E9476
:1019A0002B11CF910C945F0C91E09093590398E622
:1019B00090937B0310925A0310927C03682F81E668
:1019C00094E00E942B110E945F0C61E088E60E9467
:1019D0001D0C109258038093570381E694E00E94F7
:1019E000E21008950F931F93CF93DF938C01C0E013
:1019F000D0E0F801EC0FFD1F6491662341F084EC08
:101A000093E00E942510892B11F02196F2CFCE0190
:101A1000DF91CF911F910F91089590E0FC01E15B60
:101A2000FC4F2081211108C021E02083FC01E95BEB
:101A3000FC4F20832093180108950F931F93CF9399
:101A40008C0181E08093590388E680937B03109298
:101A50005A0310927C0360E081E694E00E942B110F
:101A6000F8012581CAE0822F6C2F0E94CD2D682FAE
:101A7000660F860F880F682F620F81E694E00E9440
:101A80002B11F8012481822F6C2F0E94CD2D682FFD
:101A9000660F860F880F682F620F81E694E00E9420
:101AA0002B11F8012381822F6C2F0E94CD2D682FDE
:101AB000660F860F880F682F620F81E694E00E9400
:101AC0002B1160E081E694E00E942B11F801228145
:101AD000822F6C2F0E94CD2D682F660F860F880FE6
:101AE000682F620F81E694E00E942B11F80121819A
:101AF000822F6C2F0E94CD2D682F660F860F880FC6
:101B0000682F620F81E694E00E942B11F80120817A
:101B1000822F6C2F0E94CD2D682F660F860F880FA5
:101B2000682F620F81E694E00E942B110E945F0CE7
:101B30008FE00E94D40C682F6F778FE0CF911F91B8
:101B40000F910C94BB0C8230C8F4E82FF0E0EE0F3C
:101B5000FF1FEC5EFE4F71836083813041F0809106
:101B600069008C7F816080936900E89A0895809174
:101B70006900837F846080936900E99A08950F93D8
:101B80001F930091D3041091D4042091D504309177
:101B9000D6040093030510930405209305053093A4
:101BA00006056093DB047093DC048093DD0490935E
:101BB000DE0410920A011F910F9108950F931F9355
:101BC00080910A01811124C04091D3045091D40422
:101BD0006091D5047091D60400910305109104051D
:101BE0002091050530910605401B510B620B730BCC
:101BF0000091DB041091DC042091DD043091DE04BF
:101C0000401751076207730718F081E080930A01BB
:101C10001F910F910895CF93DF93282F30E0F901A2
:101C2000E55EFD4F8491F901E75CFD4FD491F90128
:101C3000E35BFD4FC491CC2391F081110E94750BA1
:101C4000EC2FF0E0EE0FFF1FEF5EFD4FA591B4917A
:101C5000EC91ED2381E090E021F480E002C080E08F
:101C600090E0DF91CF9108951F93CF93DF93282FBA
:101C700030E0F901E55EFD4F8491F901E75CFD4F2D
:101C8000D491F901E35BFD4FC491CC23C1F0162F31
:101C900081110E94750BEC2FF0E0EE0FFF1FE95F42
:101CA000FD4FA591B4919FB7F894111104C08C9188
:101CB000D095D82302C0EC91DE2BDC939FBFDF913F
:101CC000CF911F9108950F931F93CF93DF9300D06F
:101CD000CDB7DEB769834A83880F991F0091CD0481
:101CE0001091CE04000F111FE7E7F4E09F01275782
:101CF00034402017310714F41192F8CF2981FC01E8
:101D0000E958FB4F21838A81808360E08091CB0476
:101D10000E94340E80E58CBD81E08DBD1016110649
:101D20006CF401501109F801E958FB4F80818EBD18
:101D300000000DB407FEFDCF8EB5F0CF61E08091BD
:101D4000CB040F900F90DF91CF911F910F910C94C6
:101D5000340EEF92FF920F931F93CF937C018C016F
:101D600083E0000F111F8A95E1F709571B4FC1E06F
:101D7000F80111928F0140E06C2FC7010E94630EA1
:101D8000CF5FC930A9F7CF911F910F91FF90EF90CE
:101D90000895462F2091CD043091CE0412161306DB
:101DA0006CF48830910550F4FC01E958FB4F608BCE
:101DB00061E0680F80E090E00C94630E0895CF938B
:101DC000DF9390E0FC01E75CFD4F2491FC01E35BB5
:101DD000FD4F8491882361F190E0880F991FFC01E9
:101DE000E15DFD4FC591D491FC01E95FFD4FA591E7
:101DF000B491611109C09FB7F8948881209582231E
:101E00008883EC912E230BC0623061F49FB7F89465
:101E10008881322F309583238883EC912E2B2C934D
:101E20009FBF06C08FB7F894E8812E2B28838FBF01
:101E3000DF91CF9108958E3008F08E5087708064C6
:101E400080937C0080917A00806480937A008091F6
:101E50007A0086FDFCCF809178002091790090E097
:101E6000922B08953FB7F8948091430390914403D7
:101E7000A0914503B091460326B5A89B05C02F3F0E
:101E800019F00196A11DB11D3FBFBA2FA92F982FA0
:101E90008827820F911DA11DB11DBC01CD0143E01A
:101EA000660F771F881F991F4A95D1F708958F9263
:101EB0009F92AF92BF92CF92DF92EF92FF926B010F
:101EC0007C010E94320F4B015C01C114D104E1047A
:101ED000F104F1F00E94320FDC01CB01881999095D
:101EE000AA09BB09883E9340A105B10570F321E022
:101EF000C21AD108E108F10888EE880E83E0981E26
:101F0000A11CB11CC114D104E104F10419F7DDCF07
:101F1000FF90EF90DF90CF90BF90AF909F908F9009
:101F200008950895CF92DF92EF92FF920F931F933F
:101F3000CF93DF936C017A018B01C0E0D0E0CE1526
:101F4000DF0581F0D8016D918D01D601ED91FC91F5
:101F50000190F081E02DC6010995892B11F02196A1
:101F6000EECF7E01C701DF91CF911F910F91FF90BE
:101F7000EF90DF90CF900895FC01538D448D252F75
:101F800030E0842F90E0821B930B541710F0CF9613
:101F9000089501970895FC01918D828D981761F045
:101FA000828DDF01A80FB11D5D968C91928D9F5F90
:101FB0009F73928F90E008958FEF9FEF0895FC013B
:101FC000918D828D981731F0828DE80FF11D858DEE
:101FD00090E008958FEF9FEF0895FC01918D228D81
:101FE000892F90E0805C9F4F821B91098F73992706
:101FF000089584EC93E00E94ED0F21E0892B09F411
:1020000020E0822F0895FC01848DDF01A80FB11D0F
:10201000A35ABF4F2C91848D90E001968F7399271E
:10202000848FA689B7892C93A089B1898C918370FC
:1020300080648C93938D848D981306C00288F389F5
:10204000E02D80818F7D80830895EF92FF920F9322
:102050001F93CF93DF93EC0181E0888F9B8D8C8D54
:10206000981305C0E889F989808185FD26C0F62E80
:102070000B8D10E00F5F1F4F0F731127E02E8C8D1B
:10208000E8120CC00FB607FCFACFE889F989808105
:1020900085FFF5CFCE010E940310F1CF8B8DFE019D
:1020A000E80FF11DE35AFF4FF0829FB7F8940B8FB2
:1020B000EA89FB89808180620AC09FB7F894EE8923
:1020C000FF896083E889F9898081837080648083D7
:1020D0009FBF81E090E0DF91CF911F910F91FF9022
:1020E000EF900895CF93DF93EC01888D8823C9F09A
:1020F000EA89FB89808185FD05C0A889B9898C9111
:1021000086FD0FC00FB607FCF5CF808185FFF2CFAB
:10211000A889B9898C9185FFEDCFCE010E9403106B
:10212000E7CFDF91CF91089580E090E0892B29F0EF
:102130000E94F90F81110C940000089585ED8093A1
:10214000BC008091BC0084FDFCCF1092C3030895B5
:1021500040919B05262F30E0240F311D213231059F
:10216000DCF42091C3032430C9F4FC0180E090E04A
:10217000861758F430919B052191DC01A558BA4F80
:10218000A30FB11D2C930196F3CF80919B05680F8F
:1021900060939B0580E0089581E0089582E00895B2
:1021A000089508950895E091580380915703E81722
:1021B00030F4F0E0E358FC4F808190E008958FEF19
:1021C0009FEF08959091580380915703981750F40A
:1021D000E92FF0E0E358FC4F208130E09F5F9093BF
:1021E000580302C02FEF3FEFC901089580915703B4
:1021F00090E020915803821B91090895CF92DF92BD
:10220000EF92FF920F931F93CF93DF937C01CB014B
:102210008A0120915903222389F0EB016B01C40E3E
:10222000D51ECC15DD0569F06991D701ED91FC91C2
:102230000190F081E02DC7010995F3CF642F0E9432
:10224000A810C801DF91CF911F910F91FF90EF90DF
:10225000DF90CF900895CF93DF931F92CDB7DEB775
:102260006983209159032223D1F020917C032032ED
:1022700040F021E030E0FC013383228380E090E0F5
:1022800015C080915A03E82FF0E0E55AFC4F998180
:1022900090838F5F80935A0380937C0305C061E035
:1022A000CE0101960E94A81081E090E00F90DF918E
:1022B000CF910895089580E090E008950E94E62D62
:1022C0001F920F920FB60F9211242F933F934F93AB
:1022D0005F936F937F938F939F93AF93BF93EF938E
:1022E000FF93E0911601F09117010995FF91EF918D
:1022F000BF91AF919F918F917F916F915F914F911E
:102300003F912F910F900FBE0F901F9018951F9225
:102310000F920FB60F9211242F933F934F935F9319
:102320006F937F938F939F93AF93BF93EF93FF939D
:10233000E0911401F09115010995FF91EF91BF9182
:10234000AF919F918F917F916F915F914F913F914D
:102350002F910F900FBE0F901F901895909119011B
:10236000891324C0EDE6F2E0E4919FEF9093190108
:10237000E130B9F098F0E230C9F4909170009D7F9F
:102380009093700091E09093B0009091B100987F8D
:1023900094609093B1001092B30008C010926E0048
:1023A00005C090916F009D7F90936F0060E00C944A
:1023B000340E1F920F920FB60F9211242F933F935A
:1023C0004F935F936F937F938F939F93AF93BF933D
:1023D000EF93FF938091770590917805A09179050F
:1023E000B0917A05892B8A2B8B2B51F19091760530
:1023F000E0917405F0917505808189278083809133
:10240000770590917805A0917905B0917A05181615
:1024100019061A061B06C4F4809177059091780579
:10242000A0917905B0917A050197A109B10980932E
:10243000770590937805A0937905B0937A0504C049
:10244000809119010E94AE11FF91EF91BF91AF9160
:102450009F918F917F916F915F914F913F912F91BC
:102460000F900FBE0F901F9018951F920F920FB6EE
:102470000F9211242F933F934F935F936F937F930A
:102480008F939F93AF93BF93EF93FF9384EC93E06D
:102490000E940310FF91EF91BF91AF919F918F9197
:1024A0007F916F915F914F913F912F910F900FBE50
:1024B0000F901F9018951F920F920FB60F92112434
:1024C0002F938F939F93EF93FF93E091D403F09119
:1024D000D5038081E091DA03F091DB0382FD12C025
:1024E00090818091DD038F5F8F732091DE038217CF
:1024F00051F0E091DD03F0E0EC53FC4F958F8093B9
:10250000DD0301C08081FF91EF919F918F912F9109
:102510000F900FBE0F901F901895CF92DF92EF9201
:10252000FF920F931F93CF93DF93EC0181E0809391
:10253000590388E680937B0310925A0310927C0320
:1025400060E081E694E00E942B110E945F0C67E03E
:1025500088E60E941D0C109258038093570381E671
:1025600094E00E94E2108F77982F92959F701AEF57
:10257000082F919F000D112481E694E00E94E21043
:102580009C01332794E0359527959A95E1F7F82E2D
:10259000129FF00C112481E694E00E94E2109C014D
:1025A000332744E0359527954A95E1F7E82E129FA9
:1025B000E00C112481E694E00E94E21081E694E0B0
:1025C0000E94E2109C01332754E0359527955A95D7
:1025D000E1F7D82E129FD00C112481E694E00E94DE
:1025E000E2109C01332764E0359527956A95E1F761
:1025F000C82E129FC00C112481E694E00E94E210C4
:102600009C01332774E0359527957A95E1F7129F61
:10261000800D11248883C982DA82EB82FC820D83CB
:10262000CE01DF91CF911F910F91FF90EF90DF903E
:10263000CF900895EF92FF920F931F93CF93DF9364
:10264000EC0169813881432F50E08A8190E0E1E616
:10265000F2E021E0261730F47491870F911D2F5F6F
:102660003196F8CF633018F0337009F401966DE6B7
:1026700071E0469F9001479F300D569F300D112409
:10268000215031094D5F5F4F5695479556954795B7
:10269000240F351F280F391FA8E1B0E00E94BE2D7E
:1026A0002B817B018C01E20EF11C011D111DA80183
:1026B0009701ACE3B0E00E94522D2C817B018C018C
:1026C000E20EF11C011D111DA80197010E94522D5F
:1026D0002D81DC01CB01820F911DA11DB11DBC011B
:1026E000CD0160587C4B8249974CDF91CF911F916F
:1026F0000F91FF90EF900895FC01908190539A30D4
:1027000008F090E0818180532AE0929F800D11248F
:1027100008958F929F92AF92BF92CF92DF92EF92E5
:10272000FF92CF93DF93EC016A017B0180E8C81A26
:1027300083E4D80A8DE6E80A88E3F80A8CE3882E59
:10274000912CA12CB12CC701B601A50194010E94C6
:102750009C2D6D83CA01B901A50194010E949C2D95
:102760006C83C701B60120E13EE040E050E00E94EA
:102770009C2DCA01B90128E130E040E050E00E9400
:102780009C2D6B83C701B60120E831E541E050E0A4
:102790000E949C2D18824881542F537081E009F0CB
:1027A00080E090E0BC0163597E4F2617370738F070
:1027B000281B390B2D5631404F5F4883ECCF81E009
:1027C00089838981E82FF0E0E05AFD4FE4915111AF
:1027D00003C0823009F4EF5FF0E02E173F0720F0CE
:1027E0002E1B3F0B8F5FECCF2F5F2A83DF91CF91A2
:1027F000FF90EF90DF90CF90BF90AF909F908F9021
:1028000008951F920F920FB60F9211242F933F93AA
:102810004F935F936F937F938F939F93AF93BF93E8
:10282000EF93FF938091B900887F803609F49CC0B4
:1028300068F5883209F45BC090F4803109F454C023
:1028400038F4882309F4F6C0883009F44DC0F6C086
:10285000883109F44CC0803209F45DC0EFC0803487
:1028600009F468C048F4803309F455C0883309F08E
:10287000E5C08093C103D8C0803509F44FC08835C6
:1028800009F45DC0883409F0D9C0D6C0883909F48C
:10289000C7C0A8F4883709F467C038F4883609F44B
:1028A00063C0803709F460C0C9C0883809F4B8C073
:1028B000803909F45FC0803809F0C0C05BC0803B3C
:1028C00009F486C038F4803A09F466C0883A09F4FD
:1028D0007FC0B4C0803C09F4A7C0883C09F4A4C000
:1028E000883B09F48AC0AAC08091BE0310C09091B1
:1028F000C0038091BF03981770F5E091C00381E099
:102900008E0F8093C003F0E0E356FC4F80818093EC
:10291000BB0085EC86C08093C1038EC0E091C003EC
:1029200081E08E0F8093C0038091BB00F0E0E356FE
:10293000FC4F80839091C0038091BF036EC0E091F3
:10294000C00381E08E0F8093C0038091BB00F0E054
:10295000E356FC4F80838091C20381116DC081E0FA
:102960008093BD0384EA61C083E08093C303109227
:10297000BD05CFCF8091BD05803208F051C0E091F8
:10298000BD0581E08E0F8093BD058091BB00F0E016
:10299000E356FA4F8083BDCF85EC8093BC00109244
:1029A000C3038091BD05803230F4E091BD05F0E0B5
:1029B000E356FA4F10826091BD0570E0E091AD01E1
:1029C000F091AE018DE995E009951092BD0536C0F4
:1029D00084E08093C30310929C0510929B05E091C4
:1029E000AF01F091B001099580919B05811105C05F
:1029F00081E080939B0510927B05E0919C0581E02E
:102A00008E0F80939C05F0E0E558FA4F808180930B
:102A1000BB0090919C0580919B05981708F479CF95
:102A200085E88093BC000AC085EC8093BC001092BE
:102A3000C30304C01092C1030E949E10FF91EF9146
:102A4000BF91AF919F918F917F916F915F914F91C6
:102A50003F912F910F900FBE0F901F9018951F92CE
:102A60000F920FB60F9211248F930FB6F894A8957A
:102A700080916000886180936000109260000FBEBA
:102A80008F910F900FBE0F901F90189580910602A6
:102A900081111092060208958091EB01811110922C
:102AA000EB0108954091360550913705BA016F5FEB
:102AB0007F4F2CE0269FF001279FF00D1124E45D4D
:102AC000FA4F20813181820F931F843691052CF4B7
:102AD00097FF05C083E690E002C080E090E02CE024
:102AE000269FF001279FF00D1124E45DFA4F91839A
:102AF0008083CA010C944018089508956091B5012F
:102B000087E00C94340EE0911C02F0911D02EE0F50
:102B1000FF1FEE0FFF1FE85FFD4F4091D304509160
:102B2000D4046091D5047091D60480819181A281F2
:102B3000B381481B590B6A0B7B0B81E04035534C2A
:102B40006105710508F480E0089580911C02909160
:102B50001D0201968530910529F090931D02809306
:102B60001C0204C010921D0210921C02E0911C0273
:102B7000F0911D02EE0FFF1FEE0FFF1FE85FFD4FEC
:102B80008091D3049091D404A091D504B091D6043F
:102B900080839183A283B38308958091D30490911D
:102BA000D404A091D504B091D604E8E0F2E081937A
:102BB0009193A193B19322E0EC31F207C1F7109207
:102BC0001D0210921C0210921E0210920702109217
:102BD00006020895E0910002F0910102EE0FFF1F3E
:102BE000EE0FFF1FE451FE4F4091D3045091D404E7
:102BF0006091D5047091D60480819181A281B381C6
:102C0000481B590B6A0B7B0B81E04035534C610527
:102C1000710508F480E0089580910002909101020E
:102C200001968530910529F090930102809300026E
:102C300004C01092010210920002E0910002F09193
:102C40000102EE0FFF1FEE0FFF1FE451FE4F8091B8
:102C5000D3049091D404A091D504B091D60480837C
:102C60009183A283B38308958091D3049091D40477
:102C7000A091D504B091D604ECEEF1E0819391934C
:102C8000A193B19322E0E030F207C1F71092010264
:102C900010920002109202021092E8011092E901D3
:102CA0001092B9011092EB010895E091E401F091C6
:102CB000E501EE0FFF1FEE0FFF1FE053FE4F4091A7
:102CC000D3045091D4046091D5047091D6048081CE
:102CD0009181A281B381481B590B6A0B7B0B81E068
:102CE0004035534C6105710508F480E008958091EA
:102CF000E4019091E50101968530910529F09093CA
:102D0000E5018093E40104C01092E5011092E40112
:102D1000E091E401F091E501EE0FFF1FEE0FFF1FC0
:102D2000E053FE4F8091D3049091D404A091D50438
:102D3000B091D60480839183A283B3830895809158
:102D4000D3049091D404A091D504B091D604E0EDC1
:102D5000F1E081939193A193B19321E0E43EF207D6
:102D6000C1F71092E5011092E4011092E601109271
:102D7000CC011092CD011092B8011092CF010895AC
:102D8000CF92DF92EF92FF920F931F938091CB012E
:102D9000C090D704D090D804E090D904F090DA0421
:102DA000882359F14091C3015091C4016091C5013C
:102DB0007091C6018091B1019091B201A091B301CF
:102DC000B091B4019A01AB01281B390B4A0B5B0B84
:102DD000A8EEB3E00E94522D0091C7011091C801E6
:102DE0002091C9013091CA01C01AD10AE20AF30A3E
:102DF0006C0D7D1D8E1D9F1D02C0C701B6011F9168
:102E00000F91FF90EF90DF90CF9008958091C201D5
:102E100081111092C2010895CF93DF93C0E0D0E0FA
:102E200060E0CE010E94C90E2196C830D105C1F7DD
:102E300010921801DF91CF9108958F929F92AF92D7
:102E4000BF92CF92DF92EF92FF92CF930E94882998
:102E50004B015C010E9488296B017C01C501B40112
:102E600020E031E040E050E00E94332DC62FC70142
:102E7000B60128E030E040E050E00E94332DDC0154
:102E8000CB016C2FCF91FF90EF90DF90CF90BF9050
:102E9000AF909F908F900C94C90E8091CD0490912B
:102EA000CE04181619064CF440910001403128F464
:102EB0006AE080E090E00C94630E0895E62FF0E065
:102EC000E05AFE4F9081682F892F90E00C94C90E34
:102ED000CF93DF93E1E0F1E0CFE4D3E0A7E4B3E008
:102EE00090E281E02081203211F090838C93288140
:102EF000222311F018828C9331962196119621E0AD
:102F0000E930F20779F781E080931801DF91CF91E2
:102F10000895CF92DF92EF92FF920F931F93CF937A
:102F2000DF93D42F122FC42F2AE0C22ED12CE12CF4
:102F3000F12C01E0611571058105910531F44D2FEA
:102F400050E0212F30E061E022C0A70196010E94ED
:102F50009C2DA62FB901CA012C2F30E0F901EF5F9B
:102F6000FE4F40814A1729F0A083F901E95BFC4F2D
:102F70000083CF5FDFCFFC01EF5FFE4F70817723CF
:102F800029F01082FC01E95BFC4F6083CF5F8C2F3E
:102F900090E0FC01E41BF50BE217F30764F381E01A
:102FA00080931801DF91CF911F910F91FF90EF90C7
:102FB000DF90CF9008956091D7047091D8048091EC
:102FC000D9049091DA044AE00E94B00B86E792E0BF
:102FD0000E94F20C8EEB95E00E949E0B84E792E03B
:102FE0000C94F20CCF93DF93EC010E94DB17CE011F
:102FF0000E94F20C8CE891E0DF91CF910C949E0B33
:103000007F936F939F938F938EE692E09F938F931E
:103010001F9284E18F938EEB95E09F938F930E9494
:103020003A2A8DB79EB70A960FB6F8949EBF0FBE88
:103030008DBF0895CF92DF92EF92FF926A017B01DC
:10304000BC018DE792E00E9400180E94DB17C701C7
:10305000B6010E94F10B8CE891E0FF90EF90DF90B9
:10306000CF900C949E0BCF93DF93EB01BC0188E7CC
:1030700092E00E940018CE01DF91CF910C94F217DC
:1030800090933705809336052CE0289FF001299F07
:10309000F00D1124E45DFA4F4089518966857785EA
:1030A0000196289FD001299FB00D1124A45DBA4F2D
:1030B0008D919C919093F3058093F2057093F105A7
:1030C0006093F00550930106409300068689978926
:1030D00024893589428953895093EF054093EE0541
:1030E0003093ED052093EC059093FF058093FE054A
:1030F00008958330910539F480910702882391F077
:103100001092070208958130910539F48091CF0122
:10311000882341F01092CF010895029711F40C9486
:103120004C1580E008950E946817E7E4F3E081E021
:10313000819393E0EF34F907D9F781E08093180188
:1031400008958F929F92AF92BF92CF92DF92EF92AB
:10315000FF921F93CF93DF932FB7F894C0906D0425
:10316000D0906E04E0906F04F09070042FBFC09276
:10317000CF04D092D004E092D104F092D204AB01FB
:10318000770F660B770B4093BD015093BE016093A0
:10319000BF017093C00121E02093C1012091BC01C7
:1031A000222309F4F9C1EC0180911901863021F044
:1031B0008F3F09F0F1C104C0EDE6F2E014916FC059
:1031C00086E080931901EDE6F2E014911F3F09F4C7
:1031D000E3C1113009F440C030F1123009F05FC092
:1031E0001092B0001092B1008091B0008260809384
:1031F000B0008091B10081608093B100E3E5F2E01E
:10320000E491F0E0EE0FFF1FE95FFD4F859194918F
:103210009093750580937405EFE3F2E0E491E093F9
:10322000760512E0B4C114BC15BC84B5826084BDBF
:1032300085B5816085BDE3E5F2E0E491F0E0EE0F55
:10324000FF1FE95FFD4F85919491EFE3F2E0E49178
:10325000E093F50510E09BC1109280001092810070
:1032600080918100886080938100809181008160DD
:1032700080938100E3E5F2E0E491F0E0EE0FFF1FC0
:10328000E95FFD4F85919491EFE3F2E0E491E093E3
:10329000F40561E086E00E94DF0E11E0A5C017FD95
:1032A0007BC161E086E00E94DF0E812F8D7F09F0F7
:1032B0009BC06E01E12CF12C60E079E08DE390E0A1
:1032C000A70196010E94332D49015A01BA01A901B3
:1032D00041505109610971094F3F5105610571055F
:1032E00009F008F445C060E271EA87E090E0A701C8
:1032F00096010E94332DBA01A9014150510961097B
:1033000071091230E9F44F3F51056105710509F06B
:1033100008F4DDC068E478EE81E090E0A701960152
:103320000E94332DBA01A901415051096109710967
:103330004F3F51056105710509F020F583E04DC04F
:103340004F3F510561057105A9F0A0F064E274EFEB
:1033500080E090E0A70196010E94332DBA01A901F7
:103360004150510961097109112309F4E1C0D8C024
:1033700081E001C082E0111130C095B5987F892BA2
:1033800085BD69C064E274EF80E090E0A70196011A
:103390000E94332DBA01A9014150510961097109F7
:1033A0004F3F51056105710509F008F48EC062E1D7
:1033B0007AE780E090E0A70196010E94332DBA01E0
:1033C000A90141505109610971094F3F510561053A
:1033D000710511F008F07DC085E09091B100987FF3
:1033E000892B8093B10031C06E01E12CF12C60E09B
:1033F00079E08DE390E0A70196010E94332DBA0198
:10340000A90141505109610971094115510581E036
:103410006807710580F064E274EF80E090E0A70136
:1034200096010E94332DBA01A90141505109610949
:10343000710983E001C081E0113039F4909181007D
:10344000987F892B8093810018C01130B1F0123021
:1034500049F11111A1C047BD8FEF9FEFDC018093AF
:10346000FA059093FB05A093FC05B093FD058091B0
:103470006E00826080936E008FC0509389004093ED
:1034800088008FEF9FEFDC018093F6059093F7059E
:10349000A093F805B093F90580916F008260809346
:1034A0006F007AC04093B3008FEF9FEFDC018093F1
:1034B000770590937805A0937905B0937A0580916C
:1034C000700082608093700067C084E086CF82E0E5
:1034D00084CF69E07DE380E090E0A70196010E943F
:1034E000332DBA01A90141505109610971094F3FBA
:1034F00051056105710591F088F0D501C4012AE0FC
:10350000B595A795979587952A95D1F7AC01BD01FB
:10351000415051096109710987E05FCF86E05DCFB5
:103520004F3F51056105710509F098F684E023CFFE
:103530004F3F51056105710541F138F169E07DE3C7
:1035400080E090E0A70196010E94332DBA01A90105
:1035500041505109610971094F3F510561057105DC
:1035600091F088F0D501C4013AE0B595A7959795FB
:1035700087953A95D1F7AC01BD01415051096109D8
:10358000710985E0FACE84E0F8CE83E0F6CE61E002
:1035900086E00E94DF0E8DCEDF91CF911F91FF90CC
:1035A000EF90DF90CF90BF90AF909F908F90089555
:1035B000FF920F931F93CF93DF938091000180932D
:1035C00032058091BC01882321F081E0809333058E
:1035D00002C0109233058091B501882321F081E06B
:1035E0008093340502C0109234058091BB0188237A
:1035F00041F081E0809335050CE215E0C2E0D0E0B7
:1036000003C010923505F8CFF801F1908F01CE017B
:103610000E941D2DF81621F06F2DCE010E94252D40
:103620002196CA34D10581F7DF91CF911F910F9177
:10363000FF9008959091220298138093220208959A
:1036400081E00C941A1B809122028F5F0C941A1B4C
:1036500090912102981739F08093210281E08093A4
:10366000220280930901089590912002981749F051
:103670008093200281E08093210280932202809334
:10368000090108951F920F920FB60F9211242F93E4
:103690003F938F939F93AF93BF9380916D049091CD
:1036A0006E04A0916F04B09170043091020626E080
:1036B000230F2D3720F40296A11DB11D05C029E866
:1036C000230F0396A11DB11D2093020680936D0464
:1036D00090936E04A0936F04B093700480914303A1
:1036E00090914403A0914503B09146030196A11D1A
:1036F000B11D8093430390934403A0934503B0937B
:103700004603BF91AF919F918F913F912F910F9061
:103710000FBE0F901F901895CF93DF93CDB7DEB7F4
:1037200061970FB6F894DEBF0FBECDBF789484B515
:10373000826084BD84B5816084BD85B5826085BDAD
:1037400085B5816085BD80916E00816080936E003B
:10375000109281008091810082608093810080912D
:1037600081008160809381008091800081608093DE
:1037700080008091B10084608093B1008091B0009E
:1037800081608093B00080917A00846080937A0099
:1037900080917A00826080937A0080917A008E7F97
:1037A00080937A0080917A00806880937A001092EA
:1037B000C100109241031092B6011092B70110920D
:1037C000BB01E091D403F091D50382E08083E091C6
:1037D000D003F091D1031082E091D203F091D30392
:1037E00080E180831092DC03E091D803F091D9034B
:1037F00086E08083E091D603F091D70380818061D9
:103800008083E091D603F091D70380818860808324
:10381000E091D603F091D703808180688083E091A6
:10382000D603F091D70380818F7D808361E086E0AD
:103830000E94DF0E81E08093BC018091CD049091C5
:10384000CE041816190634F441E06CE080E090E0F4
:103850000E94630E409100018091CD049091CE04AE
:10386000181619063CF4403128F46AE080E090E034
:103870000E94630E8091CD049091CE041816190613
:1038800024F480E090E00E94A90E10925803109258
:10389000570310925A0310927C031092C30311E055
:1038A0001093C2031092BD0361E082E10E94340EC6
:1038B00061E083E10E94340E8091B9008E7F809395
:1038C000B9008091B9008D7F8093B90080E2809328
:1038D000B80085E48093BC0080ED90E19093B00146
:1038E0008093AF0181ED90E19093AE018093AD01A3
:1038F0001093CB018FE00E94D40C90E0880F892FA9
:10390000881F990B892B09F0A6C72AC08A818136A6
:1039100009F4CBC78B818E3609F4C5C787E08D8744
:10392000CE0105960E947C138E8748E050E06EEC35
:1039300070E0CE0101960E94FD29CE0101960E9401
:103940007C138F87CE0104960E947C13888BCE0156
:1039500007960E947C13898BCE010C960E941D0D48
:103960008091CB018823E9F1CE0101960E948D124E
:1039700086E0FE013196A1E7B4E001900D928A95B0
:10398000E1F781E794E00E941A136093B10170930C
:10399000B2018093B3019093B4016093C30170931B
:1039A000C4018093C5019093C6018091D704909182
:1039B000D804A091D904B091DA048093C701909300
:1039C000C801A093C901B093CA0160E088E00E94D9
:1039D000DF0E8EE00E94D40C682F637E8EE00E9482
:1039E000BB0C62E083E00E94DF0E0E949F166CE732
:1039F00075E181E00E94A30D62E082E00E94DF0E8B
:103A00000E9434166DE775E180E00E94A30D62E02C
:103A100084E00E94DF0E0E94CD1561E087E00E94E5
:103A2000DF0E6091B50187E00E94340E6CE271E018
:103A300086E391E00E9433186AE171E085E291E04B
:103A40000E9433186CE071E083E191E00E9433182A
:103A500066EF70E085E091E00E94331883E00E94F9
:103A60001B0FBC01990F880B990B6115710581051E
:103A7000910511F00E94D629552453946FE1462EEA
:103A80007FE4272E73E0372EEEEF6E2EE1E07E2EE0
:103A9000F1E28F2EF3E09F2E8091270281110CC05E
:103AA0000E94320F609323027093240280932502B8
:103AB00090932602509227028091D3049091D404CF
:103AC000A091D504B091D6044091230250912402D4
:103AD00060912502709126028C019D01041B150B3B
:103AE000260B370BB901A8014115574863497340AC
:103AF000F0F08093230290932402A0932502B093C8
:103B0000260281E10E941B0F8C0164E471E08DE3C9
:103B100091E00E9400180E94DB17B801110F880B7A
:103B2000990B0E94F10B8CE891E00E949E0B809112
:103B3000330281110CC00E94320F60932F027093E8
:103B4000300280933102909332025092330280917E
:103B5000D3049091D404A091D504B091D60440919F
:103B60002F025091300260913102709132028C012B
:103B70009D01041B150B260B370BB901A80140341E
:103B800052446F407105C0F080932F029093300231
:103B9000A0933102B0933202809141038F5F8093F2
:103BA00041038A3049F40C94000068EE73E080E031
:103BB00090E00E94570FF9CF80913F0281110CC015
:103BC0000E94320F60933B0270933C0280933D024F
:103BD00090933E0250923F028091D3049091D4047E
:103BE000A091D504B091D60440913B0250913C0283
:103BF00060913D0270913E028C019D01041B150BEA
:103C0000260B370BB901A801403452446F407105AF
:103C100008F4DFC080933B0290933C02A0933D02E6
:103C2000B0933E028091BB018111D3C080914702C5
:103C3000882361F06DE571E088E491E00E9400184E
:103C400087E591E00E94F217109247028091B70138
:103C5000882309F4BEC01092B7018091B601813467
:103C600020F48F5F8093B601B4C01092B6018091AA
:103C7000CD049091CE041816190634F440E06CE09F
:103C800080E090E00E94630E65E571E088E491E0D9
:103C90000E9400188FE491E00E94F21768EE73E032
:103CA00080E090E00E94570F8091B10081FF02C038
:103CB00084E001C080E09091B10090FD826090911D
:103CC000B1009091B1009B7F9093B1009091B100B1
:103CD0009D7F9093B1009091B1009E7F9093B10031
:103CE0009091640090649093640090917A009F7723
:103CF00090937A0090916400916090936400909109
:103D00006400986090936400909164009062909336
:103D100064009091640094609093640090916400BA
:103D20009260909364009091640090689093640016
:103D300093B7917F93BFF89493B7916093BF7894B2
:103D4000889593B79E7F93BF7894909164009E7FEF
:103D50009093640090917A00906890937A0081FF2C
:103D600005C08091B10084608093B10080916400AF
:103D70008F7B8093640080916400877F80936400D0
:103D8000809164008F7D80936400809164008B7FBC
:103D900080936400809164008D7F809364008091A3
:103DA00064008F77809364008091CD049091CE045D
:103DB0001816190634F441E06CE080E090E00E94AF
:103DC000630E68EE73E080E090E00E94570F50921F
:103DD000470280914C0281110CC00E94320F609307
:103DE00048027093490280934A0290934B0250928A
:103DF0004C028091D3049091D404A091D504B09149
:103E0000D604409148025091490260914A02709153
:103E10004B028C019D01041B150B260B370BB901BE
:103E2000A801403157426105710508F44AC08093EA
:103E3000480290934902A0934A02B0934B0284EC4B
:103E400093E00E94ED0F20919602181619061CF4BB
:103E5000222309F477C52223A1F166E572E086E703
:103E600092E00E94F42D1A8219826EE971E086E7D1
:103E700092E00E94062ABC01CE0101960E94F42D18
:103E80006EE971E080E090E00E94062A0E94DF293E
:103E90008C016EE971E080E090E00E94062A0E94A9
:103EA000DF297C0160EA71E0CE0101960E94EB2DD2
:103EB000892B09F021C50330110509F010C51092B6
:103EC000960280919B0281110CC00E94320F609378
:103ED0009702709398028093990290939A0250925D
:103EE0009B028091D3049091D404A091D504B09109
:103EF000D604409197025091980260919902709176
:103F00009A028C019D01041B150B260B370BB9017E
:103F1000A801411557486349734060F180939702A7
:103F200090939802A0939902B0939A026DE671E083
:103F300080E791E00E9400188BE691E00E94F21762
:103F4000809105069091060603EA12E0081B190B02
:103F500067E671E08FE591E00E9400180E94DB1790
:103F6000B801110F880B990B0E94F10B8CE891E0BE
:103F70000E949E0B2FB7F89480916D0490916E046F
:103F8000A0916F04B09170042FBF8093D7049093D9
:103F9000D804A093D904B093DA040E94320F60933E
:103FA000D3047093D4048093D5049093D60461E035
:103FB00070E080E090E00E94570F8091A80281118C
:103FC0000CC00E94320F6093A4027093A5028093EC
:103FD000A6029093A7025092A8028091D3049091D8
:103FE000D404A091D504B091D6044091A40250917C
:103FF000A5026091A6027091A7028C019D01041B8D
:10400000150B260B370BB901A801483E534061053B
:104010007105B0F18093A4029093A502A093A6022B
:10402000B093A7028091C101882351F18091D704F8
:104030009091D804A091D904B091DA044091CF04B2
:104040005091D0046091D1047091D204841B950BDF
:10405000A60BB70B4091BD015091BE016091BF010D
:104060007091C00184179507A607B70748F08091A3
:10407000BC01882319F086E00E94AE111092C101A4
:104080008091B40281110CC00E94320F6093B00283
:104090007093B1028093B2029093B3025092B40233
:1040A0008091D3049091D404A091D504B091D6040A
:1040B0004091B0025091B1026091B2027091B3028E
:1040C0008C019D01041B150B260B370BB901A801B0
:1040D0004035534C6105710508F452C08093B0021D
:1040E0009093B102A093B202B093B30280911801F1
:1040F000882309F445C007E413E030E6A32E31E03D
:10410000B32E4FE4C42E43E0D42E51E0E52E51E00F
:10411000F52ED8018C91882319F18091CD049091CE
:10412000CE0418161906D4F4F50167816830B0F48E
:10413000D701EC91E7FDE0E2F0E0EB58FE4F44914F
:10414000F601808181114068E62FF0E0E958FB4FCD
:10415000408B6F5F80E090E00E94630ED8011C925C
:104160000F5F1F4FB1E0AB1AB108EFEFCE1ADE0AB6
:10417000FFEFEF1AFF0A2016310659F610921801C8
:104180008091C00281110CC00E94320F6093BC026A
:104190007093BD028093BE029093BF025092C00202
:1041A0008091D3049091D404A091D504B091D60409
:1041B0004091BC025091BD026091BE027091BF025D
:1041C0008C019D01041B150B260B370BB901A801AF
:1041D000403157426105710508F484C08093BC02E8
:1041E0009093BD02A093BE02B093BF028091CB0119
:1041F000882309F477C088E00E940B0E2091CC023E
:10420000422F50E084179507C1F0222399F0809146
:10421000C8029091C902A091CA02B091CB02019646
:10422000A11DB11D8093C8029093C902A093CA0238
:10423000B093CB0225252093CC028091D704909196
:10424000D804A091D904B091DA044091C7015091EB
:10425000C8016091C9017091CA01841B950BA60B1E
:10426000B70B84389340A105B105E0F1CE0101966A
:104270000E948D1286E0FE013196A1E7B4E0019024
:104280000D928A95E1F781E794E00E941A1300915C
:10429000C3011091C4012091C5013091C60160177E
:1042A000710782079307F1F081E794E00E941A13E7
:1042B0006093C3017093C4018093C5019093C601BC
:1042C0008091D7049091D804A091D904B091DA04D8
:1042D0008093C7019093C801A093C901B093CA010C
:1042E0005092C2018091D10281110CC00E94320F04
:1042F0006093CD027093CE028093CF029093D00250
:104300005092D1028091D3049091D404A091D5040D
:10431000B091D6044091CD025091CE026091CF026F
:104320007091D0028C019D01041B150B260B370BDD
:10433000043611052105310508F453C08093CD02E0
:104340009093CE02A093CF02B093D00283E00E945C
:104350000B0E892B99F00E945516882309F441C051
:104360008091E60181113DC05092E60181E00E94FA
:1043700077165092CD015092CC0133C00E94551651
:10438000882379F18091E601882359F1E091E401D5
:10439000F091E501EE0FFF1FEE0FFF1FE053FE4F00
:1043A0008091D3049091D404A091D504B091D60407
:1043B0004081518162817381841B950BA60BB70BE1
:1043C0008032914AA740B10518F45092CF0102C043
:1043D0001092CF011092E60180E00E9477161092B1
:1043E000CD018091DD0281110CC00E94320F6093DB
:1043F000D9027093DA028093DB029093DC02509230
:10440000DD028091D3049091D404A091D504B091A1
:10441000D6044091D9025091DA026091DB0270918A
:10442000DC028C019D01041B150B260B370B043697
:1044300011052105310508F453C08093D9029093EA
:10444000DA02A093DB02B093DC0282E00E940B0E42
:10445000892B99F00E94EA15882309F441C08091C4
:10446000020281113DC05092020281E00E940C16AE
:104470005092E9015092E80133C00E94EA15882366
:1044800079F180910202882359F1E0910002F091C4
:104490000102EE0FFF1FEE0FFF1FE451FE4F809150
:1044A000D3049091D404A091D504B091D604408156
:1044B000518162817381841B950BA60BB70B8032EF
:1044C000914AA740B10518F45092EB0102C0109236
:1044D000EB011092020280E00E940C161092E9019A
:1044E0008091E90281110CC00E94320F6093E502B5
:1044F0007093E6028093E7029093E8025092E902FB
:104500008091D3049091D404A091D504B091D604A5
:104510004091E5025091E6026091E7027091E80255
:104520008C019D01041B150B260B370B043611055E
:104530002105310508F44EC08093E5029093E60210
:10454000A093E702B093E80284E00E940B0E01976B
:1045500061F00E9483158823E9F180911E02811188
:1045600039C050921E0281E033C00E948315882317
:1045700089F180911E02882369F1E0911C02F0917B
:104580001D02EE0FFF1FEE0FFF1FE85FFD4F809132
:10459000D3049091D404A091D504B091D604408165
:1045A000518162817381841B950BA60BB70B8032FE
:1045B000914AA740B10528F45092070210920602D2
:1045C00004C0109207025092060210921E0280E070
:1045D0000E94A5158091F50281110CC00E94320F36
:1045E0006093F1027093F2028093F3029093F402CD
:1045F0005092F5028091D3049091D404A091D504F7
:10460000B091D6044091F1025091F2026091F30210
:104610007091F4028C019D01041B150B260B370BC6
:10462000B901A801403452446F40710540F08093B5
:10463000F1029093F202A093F302B093F4028091FE
:10464000010381110CC00E94320F6093FD02709330
:10465000FE028093FF029093000350920103809129
:10466000D3049091D404A091D504B091D604409184
:10467000FD025091FE026091FF02709100038C01D7
:104680009D01041B150B260B370BB901A801403403
:1046900052446F40710540F08093FD029093FE02FA
:1046A000A093FF02B093000380910D0381110CC011
:1046B0000E94320F6093090370930A0380930B03E7
:1046C00090930C0350920D038091D3049091D404E5
:1046D000A091D504B091D6044091090350910A03EA
:1046E00060910B0370910C038C019D01041B150B51
:1046F000260B370BB901A8014038564968497105A6
:1047000040F08093090390930A03A0930B03B093A6
:104710000C038091190381110CC00E94320F609329
:104720001503709316038093170390931803509208
:1047300019038091D3049091D404A091D504B09131
:10474000D6044091150350911603609117037091A0
:1047500018038C019D01041B150B260B370B043627
:10476000110521053105D8F18093150390931603A7
:10477000A0931703B093180380914203882379F123
:104780000E946C0180910901882349F180912202E5
:104790001F928F93809121021F928F93809120020C
:1047A0001F928F937F926F929F928F920E946A2A9C
:1047B0006AEF71E085EF91E00E9400180E94DB171C
:1047C00081E293E00E949E0B8CE891E00E949E0B98
:1047D000109209010FB6F894DEBF0FBECDBF8091D5
:1047E000390381110CC00E94320F6093350370931E
:1047F00036038093370390933803509239038091A6
:10480000D3049091D404A091D504B091D6044091E2
:1048100035035091360360913703709138038C0152
:104820009D01041B150B260B370BB901A801483E4F
:1048300053406105710560F0809335039093360312
:10484000A0933703B0933803509242031092410370
:104850000E94941021C96EEE70E089EC90E00E94F5
:10486000001883EE90E00E94F2174BE050E067EDF5
:1048700070E0CE0101960E94FD29CE010A960E94A9
:104880007C138C87E9818E2FEE0F990BAA0BBB0B43
:10489000FC01E154F109E331F10508F041C8EC5C99
:1048A000FF4F0C94D92D86E03AC881E038C882E0E9
:1048B00036C88B81823711F088E031C884E02FC878
:1048C0008B81823711F085E02AC883E028C889E00F
:1048D00026C88AE024C88BE022C88CE020C80230B9
:1048E000110519F45092B901EACA0130110509F015
:1048F000E6CA5092B801E3CA62EA71E0CE010196BD
:104900000E94EB2D892B29F4B701C8010E94A11840
:10491000D6CA64EA71E0CE0101960E94EB2D892B84
:1049200009F0CDCA012B09F0CACAE114F10419F447
:104930001092BB01C4CAEA94EF2809F0C0CA509291
:10494000BB01BDCA84EC93E00E94CB0F8A3049F4CE
:104950001092560210925502109254021092960232
:104960006ECA909155029923E9F0E09154028E337A
:1049700071F0AE2FB0E0AA5ABD4F8C93EF5FE032DA
:1049800018F4E09354025BCA4092540258CAF0E013
:10499000EA5AFD4F10821092550210925402509222
:1049A00096024DCA8C3309F04ACA5092550247CA42
:1049B000CF93DF931092C7031092C60388EE93E063
:1049C000A0E0B0E08093C8039093C903A093CA030A
:1049D000B093CB032CE631E03093C5032093C4039E
:1049E00025EC30E03093D1032093D00324EC30E069
:1049F0003093D3032093D20320EC30E03093D503DF
:104A00002093D40321EC30E03093D7032093D603D6
:104A100022EC30E03093D9032093D80326EC30E029
:104A20003093DB032093DA031092DD031092DE0350
:104A30001092DF031092E00310926404109263045A
:104A40008093650490936604A0936704B093680410
:104A50008EE791E090936204809361042FB7F894FD
:104A600080916D0490916E04A0916F04B0917004D8
:104A70002FBF8093D7049093D804A093D904B09308
:104A8000DA040E94320F6093D3047093D4048093AD
:104A9000D5049093D6042FB7F89480916D0490912B
:104AA0006E04A0916F04B09170042FBF8093CF0467
:104AB0009093D004A093D104B093D2048AE090E004
:104AC0009093CC048093CB0481E090E09093CE044B
:104AD0008093CD0461E08BE00E94DF0E61E08DE009
:104AE0000E94DF0E61E08091CB040E94DF0E8CB546
:104AF0008F7D8CBD8CB5837F8CBDCFB7F8948091B2
:104B00002B05811127C0E7E5F2E08491E3E4F2E0B0
:104B10009491E82FF0E0EE0FFF1FE15DFD4FA591AE
:104B2000B491EC91E92321F461E08AE00E94340E13
:104B300061E08AE00E94DF0E8CB580618CBD8CB58F
:104B400080648CBD61E08DE00E94DF0E61E08BE04F
:104B50000E94DF0E80912B058F5F80932B05CFBFC6
:104B600061E08091CB040E94340EE7E8F4E087EC2A
:104B700094E011928E179F07E1F7C0E0D0E080919A
:104B8000CD049091CE04C817D90794F540E06FE0AA
:104B9000CE010E94630ED7FD0CC08091CD04909190
:104BA000CE04C817D9072CF447E06BE0CE010E9471
:104BB000630E40E069E0CE010E94630ED7FD16C08F
:104BC0008091CD049091CE04C817D9071CF4CE0172
:104BD0000E94A90E8091CD049091CE04C817D907E8
:104BE0002CF440E06CE0CE010E94630E2196C7CF0A
:104BF00040E050E0BA0181E794E0DF91CF910C945E
:104C0000891340913605509137052CE0249FF0011F
:104C1000259FF00D1124E45DFA4F26893789820F14
:104C2000931F843691052CF497FF05C083E690E02E
:104C300002C080E090E02CE0249FF001259FF00D61
:104C40001124E45DFA4F978B868BCA010C944018AF
:104C500040913605509137052CE0249FF001259FA7
:104C6000F00D1124E45DFA4F24893589820F931FDA
:104C70008C3391052CF497FF05C08BE390E002C0C4
:104C800080E090E02CE0249FF001259FF00D11249E
:104C9000E45DFA4F958B848BCA010C9440184091C7
:104CA0003605509137052CE0249FF001259FF00D2B
:104CB0001124E45DFA4F22893389820F931F8436D1
:104CC00091052CF497FF05C083E690E002C080E0D8
:104CD00090E02CE0249FF001259FF00D1124E45D6D
:104CE000FA4F938B828BCA010C9440184091360581
:104CF000509137052CE0249FF001259FF00D1124E1
:104D0000E45DFA4F20893189820F931F8436910523
:104D10002CF497FF05C083E690E002C080E090E0AD
:104D20002CE0249FF001259FF00D1124E45DFA4F43
:104D3000918B808BCA010C9440184091360550919C
:104D400037052CE0249FF001259FF00D1124E45D30
:104D5000FA4F26853785820F931F8C3391052CF4EB
:104D600097FF05C08BE390E002C080E090E02CE06C
:104D7000249FF001259FF00D1124E45DFA4F9787E1
:104D80008687CA010C9440180F931F938091EB05FE
:104D9000882331F1A0910006B091010628EE33E09E
:104DA0000E94DF2D0091E7051091E8052091E905AB
:104DB0003091EA05DC01CB01800F911FA21FB31FC8
:104DC0008093E3059093E405A093E505B093E60591
:104DD0008093E7059093E805A093E905B093EA0571
:104DE0008091E205882331F1A091FE05B091FF0585
:104DF00028EE33E00E94DF2D0091DE051091DF05E3
:104E00002091E0053091E105DC01CB01800F911F7D
:104E1000A21FB31F8093DA059093DB05A093DC05F6
:104E2000B093DD058093DE059093DF05A093E00548
:104E3000B093E1050E94C0166093D6057093D70524
:104E40008093D8059093D9050E94C0166093D2052F
:104E50007093D3058093D4059093D5051F910F913E
:104E60000895CF93DF93D62FC42F882349F0609104
:104E7000740470E080E090E022E046E00E94891730
:104E8000DD2349F06091750470E080E090E022E05D
:104E900043E00E948917CC2359F06091760470E0BA
:104EA00080E090E022E040E0DF91CF910C94891700
:104EB000DF91CF910895CF93DF93D62FC42F88230E
:104EC00061F06091EE057091EF05072E000C880BE4
:104ED000990B22E046E00E948917DD2361F0609182
:104EE000EC057091ED05072E000C880B990B22E064
:104EF00044E00E948917CC2361F06091FE05709117
:104F0000FF05072E000C880B990B22E042E00E945F
:104F1000891784E00E940D0D86E0DF91CF910C94FB
:104F20000D0DCF93DF93D62FC42F882361F06091AE
:104F3000F2057091F305072E000C880B990B22E007
:104F400044E00E948917DD2361F06091F0057091C3
:104F5000F105072E000C880B990B22E042E00E941D
:104F60008917CC2361F06091000670910106072E2D
:104F7000000C880B990B22E040E00E94891782E028
:104F80000E940D0D84E0DF91CF910C940D0DCF9216
:104F9000DF92EF92FF920F931F93CF93DF93CDB7E2
:104FA000DEB762970FB6F894DEBF0FBECDBF6C01BF
:104FB000E1E7F4E080818F8381818887828189871E
:104FC00083818A8784818B8785818C87CE01079630
:104FD0000E941A130D2C000CEE08FF08C60ED71EF7
:104FE000E81EF91E86E090E00E941C288C01B701A3
:104FF000A6010E948913A801110F660B770BCE0141
:105000000D960E948913B701A601CE0101960E9458
:105010008913CE0101960E941D0D62960FB6F89479
:10502000DEBF0FBECDBFDF91CF911F910F91FF90DB
:10503000EF90DF90CF9008950F931F93CF93DF935E
:105040008230910510F482E090E0E0910706F09143
:10505000080620E030E0A0E0B0E0309719F1408190
:1050600051810281138148175907C8F084179507A9
:1050700069F4109731F012960C93129713961C93C3
:1050800027C0009307061093080622C0211531059A
:1050900019F04217530718F49A01BD01EF01DF011F
:1050A000F801DBCF21153105F9F0281B390B24302D
:1050B000310580F48A819B816115710521F0FB0126
:1050C0009383828304C09093080680930706FE01B1
:1050D000329644C0FE01E20FF31F81939193225058
:1050E0003109398328833AC020910506309106069C
:1050F000232B41F420911C0130911D0130930606B1
:105100002093050620911A0130911B0121153105CC
:1051100041F42DB73EB740911E0150911F01241B51
:10512000350BE0910506F0910606E217F307A0F4AF
:105130002E1B3F0B2817390778F0AC014E5F5F4FED
:105140002417350748F04E0F5F1F50930606409313
:1051500005068193919302C0E0E0F0E0CF01DF917A
:10516000CF911F910F910895CF93DF93009709F48A
:1051700081C0FC01329713821282A0910706B09180
:105180000806109781F420813181820F931F2091AE
:105190000506309106062817390751F5F0930606E3
:1051A000E093050667C0ED0120E030E0CE17DF0791
:1051B00040F44A815B819E0141155105F1F0EA01FD
:1051C000F5CFD383C28340815181840F951FC817C7
:1051D000D90759F488819981840F951F029691838C
:1051E00080838A819B81938382832115310529F4F1
:1051F000F0930806E09307063DC0E901FB83EA83CC
:1052000049915991C40FD51FEC17FD0761F48081B6
:105210009181840F951F0296E90199838883828189
:1052200093819B838A83E0E0F0E012968D919C91BC
:105230001397009719F0FD01DC01F7CF8D919C9138
:1052400011979D012E5F3F4F820F931F20910506FE
:10525000309106062817390769F4309729F410921F
:1052600008061092070602C013821282B093060647
:10527000A0930506DF91CF9108958F929F92AF92F0
:10528000BF92CF92DF92EF92FF92CF93DF93EC0128
:10529000688179818A819B816115710581059105FC
:1052A00021F464E279ED8BE597E02DE133EF41E005
:1052B00050E00E94332D49015A019B01AC01A7EA3D
:1052C000B1E40E94522D6B017C01ACEEB4EFA5015C
:1052D00094010E94602DDC01CB018C0D9D1DAE1D43
:1052E000BF1DB7FF03C00197A109B0488883998308
:1052F000AA83BB83BC01CD019F77DF91CF91FF9043
:10530000EF90DF90CF90BF90AF909F908F900895D7
:105310008F929F92AF92BF92CF92DF92EF92FF92C5
:1053200060912001709121018091220190912301CF
:10533000611571058105910521F464E279ED8BE534
:1053400097E02DE133EF41E050E00E94332D490119
:105350005A019B01AC01A7EAB1E40E94522D6B01F6
:105360007C01ACEEB4EFA50194010E94602DDC013C
:10537000CB018C0D9D1DAE1DBF1DB7FF03C0019756
:10538000A109B0488093200190932101A0932201AC
:10539000B0932301BC01CD019F77FF90EF90DF9088
:1053A000CF90BF90AF909F908F9008956093200111
:1053B0007093210180932201909323010895FC01B1
:1053C00088279927E89421912032E9F3293010F0B9
:1053D0002E30C8F32B3241F02D3239F4689404C0DA
:1053E0000E94322A820F911D219120532A30C0F34E
:1053F0001EF4909581959F4F0895FB01DC0102C03A
:1054000005900D9241505040D8F7089543E056E082
:105410000E940B2A0895FA01A191B081009719F416
:105420001097E1F0CD01DC01CD010D90002011F4C9
:10543000C00113C0FB012191222319F02015D9F7D7
:10544000F3CFFB012191201519F41E92119606C08D
:105450002223C1F70D900020A1F7D001FA01A193FA
:10546000B08308957AE0979F902D879F802D910DAE
:1054700011240895AEE0B0E0E0E4FAE20C94732D5C
:105480000D891E898F89988D2EE02C831A830983BC
:1054900097FF02C080E090E801979E838D83AE0164
:1054A000455E5F4F698D7A8DCE0101960E948C2AF0
:1054B0004D815E8157FD0AC02F8138854217530701
:1054C0000CF49A01F801E20FF31F10822E96E4E02B
:1054D0000C948F2DAEE0B0E0E0E7FAE20C94732D6F
:1054E0000D891E898EE08C831A8309838FEF9FE7D5
:1054F0009E838D83AE01475E5F4F6F89788DCE01AD
:1055000001960E948C2AEF81F885E00FF11F10822E
:105510002E96E4E00C948F2DABE0B0E0E2E9FAE2E5
:105520000C94652D6C017B018A01FC0117821682A7
:10553000838181FFCCC1CE0101963C01F6019381AC
:10554000F70193FD859193FF81917F01882309F4F1
:10555000BAC1853239F493FD859193FF81917F0122
:10556000853229F4B60190E00E94832CE7CF912C7C
:10557000212C312CFFE1F315D8F08B3279F038F47F
:10558000803279F08332A1F4232D20611DC08D3249
:1055900061F0803369F4232D216016C0832D826071
:1055A000382EE32DE4603E2E2AC0F32DF8601DC096
:1055B00037FC2DC020ED280F2A3040F08E32B9F490
:1055C00036FC81C1232D2064322E19C036FE06C060
:1055D0008AE0989E200D1124922E11C0EAE02E9EA2
:1055E000200D1124222EF32DF0623F2E08C08C36A0
:1055F00021F4832D8068382E02C0883641F4F701EB
:1056000093FD859193FF81917F018111B3CF982FF5
:105610009F7D9554933028F40C5F1F4F9FE399832F
:105620000DC0833631F0833771F0833509F059C0EE
:1056300021C0F801808189830E5F1F4F88248394E5
:10564000912C530113C02801F2E04F0E511CF801B8
:10565000A080B18036FE03C0692D70E002C06FEFFC
:105660007FEFC5010E94782C4C018201F32DFF775A
:105670003F2E16C0280122E0420E511CF801A080E6
:10568000B18036FE03C0692D70E002C06FEF7FEF7E
:10569000C5010E946D2C4C01F32DF0683F2E820154
:1056A00033FC1BC0822D90E088169906B0F4B60139
:1056B00080E290E00E94832C2A94F4CFF50137FC1D
:1056C000859137FE81915F01B60190E00E94832CA5
:1056D00021102A9421E0821A91088114910471F713
:1056E000E8C0843611F0893641F5F80137FE07C06D
:1056F00060817181828193810C5F1F4F08C060813E
:105700007181072E000C880B990B0E5F1F4FF32D34
:10571000FF763F2E97FF09C0909580957095619513
:105720007F4F8F4F9F4FF0683F2E2AE030E0A3015C
:105730000E94BF2C882E861845C0853731F4232D52
:105740002F7EB22E2AE030E025C0932D997FB92E0E
:105750008F36C1F018F4883579F0B5C0803719F06C
:10576000883721F0B0C0E92FE061BE2EB4FE0DC035
:10577000FB2DF460BF2E09C034FE0AC0292F26601D
:10578000B22E06C028E030E005C020E130E002C0C3
:1057900020E132E0F801B7FE07C0608171818281AB
:1057A00093810C5F1F4F06C06081718180E090E0A3
:1057B0000E5F1F4FA3010E94BF2C882E8618FB2D61
:1057C000FF773F2E36FE0DC0232D2E7FA22E89148B
:1057D00058F434FE0BC032FC09C0832D8E7EA82EF7
:1057E00005C0B82CA32C03C0B82C01C0B92CA4FE52
:1057F0000FC0FE01E80DF11D8081803321F49A2D48
:10580000997EA92E09C0A2FE06C0B394B39404C029
:105810008A2D867809F0B394A3FC11C0A0FE06C0BF
:10582000B21488F4280C922C9B180EC0B21460F4A9
:10583000B60180E290E00E94832CB394F7CFB214BB
:1058400018F42B1802C0982C212CA4FE10C0B6010D
:1058500080E390E00E94832CA2FE17C0A1FC03C04D
:1058600088E790E002C088E590E0B6010CC08A2D80
:10587000867859F0A1FE02C08BE201C080E2A7FC4D
:105880008DE2B60190E00E94832C891438F4B601B1
:1058900080E390E00E94832C9A94F7CF8A94F301DE
:1058A000E80DF11D8081B60190E00E94832C8110EB
:1058B000F5CF222009F442CEB60180E290E00E94AA
:1058C000832C2A94F6CFF6018681978102C08FEF50
:1058D0009FEF2B96E2E10C94812DFC010590615025
:1058E00070400110D8F7809590958E0F9F1F0895F6
:1058F000FC016150704001900110D8F7809590959F
:105900008E0F9F1F08950F931F93CF93DF93FB017B
:10591000238121FD03C08FEF9FEF2CC022FF16C013
:1059200046815781248135814217530744F4A08171
:10593000B1819D012F5F3F4F318320838C9326815E
:1059400037812F5F3F4F3783268314C08B01EC01D3
:10595000FB010084F185E02D0995892BE1F6D80142
:1059600016968D919C911797019617969C938E93FE
:105970001697CE01DF91CF911F910F910895FA01F3
:10598000AA27283051F1203181F1E8946F936E7F7E
:105990006E5F7F4F8F4F9F4FAF4FB1E03ED0B4E06F
:1059A0003CD0670F781F891F9A1FA11D680F791FB0
:1059B0008A1F911DA11D6A0F711D811D911DA11DC1
:1059C00020D009F468943F912AE0269F11243019D1
:1059D000305D3193DEF6CF010895462F4770405D6C
:1059E0004193B3E00FD0C9F7F6CF462F4F70405D1B
:1059F0004A3318F0495D31FD4052419302D0A9F776
:105A0000EACFB4E0A6959795879577956795BA956F
:105A1000C9F700976105710508959B01AC010A2E35
:105A200006945795479537952795BA95C9F7620F0C
:105A3000731F841F951FA01D0895F999FECF92BD75
:105A400081BDF89A992780B50895262FF999FECF40
:105A50001FBA92BD81BD20BD0FB6F894FA9AF99A8B
:105A60000FBE01960895052E97FB1EF400940E9428
:105A70004A2D57FD07D00E949C2D07FC03D04EF401
:105A80000C944A2D50954095309521953F4F4F4F9E
:105A90005F4F089590958095709561957F4F8F4FDA
:105AA0009F4F08950E94BE2DA59F900DB49F900D0D
:105AB000A49F800D911D11240895B7FF0C94522DC1
:105AC0000E94522D821B930B08952F923F924F926A
:105AD0005F926F927F928F929F92AF92BF92CF927E
